S0120000686F696B652D6D61696E2E7372656330
S113000045C0000060C000005EC000005CC000008D
S11300105AC0000058C0000056C0000054C0000080
S113002052C0000050C000004EC000004CC0000090
S11300304AC0000070C1000046C0000044C0000077
S113004042C0000040C000003EC000003CC00000B0
S11300503AC0000038C0000036C0000034C00000C0
S113006032C0000030C000002EC000002CC00000D0
S11300702AC0000028C0000026C0000024C00000E0
S113008022C0000020C000001EC0000011241FBEBA
S1130090CFEFD0E4DEBFCDBF11E0A0E0B1E0E6E4F5
S11300A0FBE000E00BBF02C007900D92AE36B10733
S11300B0D9F721E0AEE6B1E001C01D92AE37B20738
S11300C0E1F7CAD43EC59CCFCF93DF93CDB7DEB75B
S11300D081E018D0DF91CF910895CF93DF93CDB70E
S11300E0DEB784E690E0A7D088E30CD086E00AD09F
S11300F08FE008D081E006D08AE090E09CD0DF91C8
S1130100CF910895CF93DF931F92CDB7DEB7898344
S11301108BE290E02BE230E0F90120812F7BFC019F
S1130120208388E290E02981FC0120838BE290E027
S11301302BE230E0F90120812068FC0120830000DB
S11301408BE290E02BE230E0F90120812F77FC0173
S1130150208382E090E06FD00F90DF91CF910895DB
S1130160CF93DF931F92CDB7DEB789838BE290E004
S11301702BE230E0F90120812064FC01208388E235
S113018090E02981FC0120838BE290E02BE230E0B7
S1130190F90120812068FC01208300008BE290E0BB
S11301A02BE230E0F90120812F77FC01208381E0EC
S11301B090E041D00F90DF91CF910895CF93DF93DA
S11301C000D000D0CDB7DEB78A837C836B837CDF1D
S11301D08A8189830FC0898191E0980F998317D010
S11301E08B819C819C012F5F3F4F3C832B83FC01BF
S11301F08081B6DF8B819C81FC018081882359F743
S11302000F900F900F900F90DF91CF910895CF939F
S1130210DF931F92CDB7DEB789838981813120F4C2
S1130220898181586FDF03C0898181556BDF0F900D
S1130230DF91CF910895CF93DF9300D000D000D009
S1130240CDB7DEB79E838D831A82198214C01C82B7
S11302501B8206C000008B819C8101969C838B834A
S11302608B819C81873023E09207A4F389819A8152
S113027001969A83898329813A818D819E812817E9
S113028039072CF326960FB6F894DEBF0FBECDBF08
S1130290DF91CF910895CF93DF93CDB7DEB781E897
S11302A090E02BE0FC01208388E890E02DE730E02B
S11302B0FC01318320838FE690E022E0FC0120835F
S11302C084E890E0FC0111821082809100019091F9
S11302D00101A0910201B091030180936F019093F9
S11302E07001A0937101B09372018FE590E02FE546
S11302F030E0F90120812068FC012083DF91CF9157
S11303000895CF93DF93CDB7DEB781E080936E017C
S1130310DF91CF9108951F920F9200905F000F928A
S1130320112400905B000F922F933F934F935F93A0
S11303306F937F938F939F93AF93BF93EF93FF93A9
S1130340CF93DF93CDB7DEB780916F0190917001A9
S1130350A0917101B09172010197A109B109809333
S11303606F0190937001A0937101B0937201809119
S11303706F0190917001A0917101B0917201009789
S1130380A105B10589F4BDDF8091000190910101BF
S1130390A0910201B091030180936F0190937001C9
S11303A0A0937101B0937201DF91CF91FF91EF910E
S11303B0BF91AF919F918F917F916F915F914F9179
S11303C03F912F910F9000925B000F9000925F007D
S11303D00F901F901895CF93DF9300D000D0CDB726
S11303E0DEB769837A838B839C8389819A81AB810D
S11303F0BC818093000190930101A0930201B0930A
S113040003018091000190910101A0910201B0913A
S1130410030180936F0190937001A0937101B093D5
S113042072010F900F900F900F90DF91CF9108956C
S1130430CF93DF93CDB7DEB78AE790E02AE730E0C9
S1130440F9012081206EFC012083DF91CF91089572
S1130450CF93DF9300D0CDB7DEB789836A838A81D7
S1130460282F30E081E090E0022E02C0880F991F0F
S11304700A94E2F7982F898189230F900F90DF91D6
S1130480CF910895CF93DF931F92CDB7DEB78983C1
S113049089818130E1F081EC90E021EC30E0F901D8
S11304A020812861FC01208382EC90E022EC30E082
S11304B0F90120812660FC01208384EC90E023E391
S11304C0FC01208385EC90E0FC0110821BC089ECC8
S11304D090E029EC30E0F90120812861FC012083BF
S11304E08AEC90E02AEC30E0F90120812660FC01DE
S11304F020838CEC90E023E3FC0120838DEC90E0DE
S1130500FC0110820F90DF91CF910895CF93DF9378
S11305101F92CDB7DEB789838981813031F080ECB9
S113052090E0FC018081807205C088EC90E0FC01C1
S1130530808180720F90DF91CF910895CF93DF93E4
S11305401F92CDB7DEB789838981813071F006C0EF
S113055086EC90E0FC01808180937B0180EC90E04C
S1130560FC0180818823A4F30DC006C08EEC90E0CA
S1130570FC01808180937B0188EC90E0FC01808108
S11305808823A4F30F90DF91CF910895CF93DF9345
S113059000D0CDB7DEB789836A838A81813089F040
S11305A0000080EC90E0FC018081882F90E0807254
S11305B099270097B1F386EC90E02981FC01208310
S11305C010C0000088EC90E0FC018081882F90E04E
S11305D0807299270097B1F38EEC90E02981FC0199
S11305E020830F900F90DF91CF910895CF93DF93E5
S11305F000D000D0CDB7DEB79A83898389819A81F0
S113060021E031E0B90168D20F900F900F900F9064
S1130610DF91CF910895CF93DF9300D000D0CDB771
S1130620DEB79A83898389819A819695879521E09B
S113063031E0B90151D20F900F900F900F90DF91DC
S1130640CF910895CF93DF9300D000D0CDB7DEB71C
S11306509A83898389819A819695879596958795BA
S113066021E031E0B90138D20F900F900F900F9034
S1130670DF91CF910895CF93DF931F92CDB7DEB76B
S11306808983898182958F70282F8981882F90E0B2
S113069082959295907F9827807F9827822B8983D3
S11306A08981882F90E08C7C9927959587959595DD
S11306B08795282F8981882F90E083739927880F45
S11306C0991F880F991F822B89838981882F90E035
S11306D08A7A992795958795282F8981882F90E084
S11306E085759927880F991F822B898389810F909B
S11306F0DF91CF9108950F931F93CF93DF93CDB7DD
S1130700DEB7C05AD1090FB6F894DEBF0FBECDBF15
S113071088E790E0FC018081918190937801809337
S1130720770189E290E0FC018081809580937301D8
S113073080917C01882F90E08130910509F44DC0AF
S1130740823091051CF4009751F07AC182309105F2
S113075009F49FC08330910509F4F0C071C110926F
S1130760760181E08093190181E080937C0182E22B
S113077090E0FC01108285E290E0FC011082000010
S113078080E0C4DE8823E1F360E080E0FFDE000067
S113079080E0BCDE8823E1F360E080E0F7DE000067
S11307A080E0B4DE8823E1F360E080E0EFDE8AE0FD
S11307B090E0B1D18093740184E190E0ACD1809356
S11307C075019091740180910901891728F41092A0
S11307D074011092750134C133C1809176018B305C
S11307E050F480911901882331F06BE171E081E0CC
S11307F0E5DC1092190180917601883290F08091A5
S11308001901882371F068E271E081E0D7DC8091FE
S11308107601843110F01092760110921901109231
S11308207601809176018F5F8093760180917601C5
S11308308A3018F081E0809319018091730164E09B
S113084007DE882341F482E080937C0110927601D4
S113085081E0809319018091730163E0F9DD8823BD
S113086041F481E080937C011092760181E08093D1
S113087019018091730162E0EBDD882349F483E080
S113088080937C011092760181E080931901D8C095
S1130890D7C080911901882331F066E471E081E0CA
S11308A08DDC1092190182E290E020917701309161
S11308B07801FC01208305E210E08091770190919A
S11308C07801D9DEF80180838091770190917801D5
S11308D08DDE80931A018091770190917801B2DEC8
S11308E080937901809177019091780194DE8093CF
S11308F07A01000080E00ADE8823E1F380911A0186
S113090060E044DE000080E001DE8823E1F38091B2
S1130910790160E03BDE000080E0F8DD8823E1F34C
S113092080917A0160E032DE8091730163E090DDB2
S1130930882319F410927C0183C082C02FE0EFE574
S1130940F1E0CE010196DC0101900D922A95E1F7C8
S113095080917501882F90E0865F9E4FBC01CE0187
S11309600196CED080911901882339F0CE010196E9
S1130970BC0181E023DC1092190182E290E0209115
S11309807401222F30E02C5F3E4FF9012081FC01DD
S113099020838091730164E05BDD882301F58091FD
S11309A074018823B1F080917401815080937401A3
S11309B080917401682F8AE090E0B5D08091750130
S11309C083508093750180917501682F84E190E0D4
S11309D0AAD083E080937C0181E080931901809107
S11309E0730163E035DD882311F410927C0180915A
S11309F0730162E02DDD882311F5909174018091DB
S1130A0009019817B0F4809174018F5F8093740189
S1130A1080917401682F8AE090E085D080917501FF
S1130A208D5F8093750180917501682F84E190E05A
S1130A307AD083E080937C0181E0809319010000E7
S1130A40C056DF4F0FB6F894DEBF0FBECDBFDF91A7
S1130A50CF911F910F910895CF93DF93CDB7DEB758
S1130A6081E290E02EEFFC01208382E290E021E01D
S1130A70FC01208384E290E02FEFFC01208385E2D7
S1130A8090E0FC01108287E290E02FEFFC012083CC
S1130A9088E290E0FC0110828AE290E02FEFFC01F2
S1130AA020838BE290E0FC011082C2DC64E670E0FB
S1130AB080E090E090DCEFDB10DB80E0E3DC80E0C2
S1130AC03DDD10927C0117DE000080916E018823C9
S1130AD0E1F310926E01F7CFAA1BBB1B51E107C0D3
S1130AE0AA1FBB1FA617B70710F0A61BB70B881FBA
S1130AF0991F5A95A9F780959095BC01CD01089549
S1130B00FB01DC010D900020E9F7119701900D9293
S1130B100020E1F70895F999FECF92BD81BDF89ABE
S1130B20992780B50895262FF999FECF1FBA92BD53
S1130B3081BD20BD0FB6F894FA9AF99A0FBE0196BA
S1090B400895F894FFCFB4
S1130B4601000000041430D008044137004120009D
S1130B564620004420004337000105486F696B6551
S1130B66205B486F6D655D00284729204C656172DE
S1130B766E202020202020202842292056697375C3
S1130B86616C697A6500486F696B65205B566973A9
S1130B9675616C5D202028522920486F6D650048D8
S1110BA66F696B65205B4C6561726E5D2000AB
S9030000FC
