:1000000045C0000060C000005EC000005CC0000091
:100010005AC0000058C0000056C0000054C0000084
:1000200052C0000050C000004EC000004CC0000094
:100030004AC00000CAC0000046C0000044C0000022
:1000400042C0000040C000003EC000003CC00000B4
:100050003AC0000038C0000036C0000034C00000C4
:1000600032C0000030C000002EC000002CC00000D4
:100070002AC0000028C0000026C0000024C00000E4
:1000800022C0000020C000001EC0000011241FBEBE
:10009000CFEFD0E4DEBFCDBF11E0A0E0B1E0EAE6F3
:1000A000F4E000E00BBF02C007900D92A238B10748
:1000B000D9F721E0A2E8B1E001C01D92AF38B20744
:1000C000E1F79BD1D0C19CCF181619069CF440E0F3
:1000D00050E077E063E00BC00000215031092115AA
:1000E0003105D1F74F5F5F4F4817590719F0272F98
:1000F000362FF2CF08955E9888B95F9A00005F9816
:1001000082E090E0E1CF089581E0F5CF089581315C
:1001100018F48158F0CF08958155EDCF089584E605
:1001200090E0D2DF88E3E7DF86E0E5DF8FE0E3DF22
:1001300081E0E1DF8AE090E0C7CF08955E9A88B958
:100140005F9A00005F9881E090E0BECF08950F9322
:100150001F93CF93DF93182FEB01D6DF888188237D
:1001600059F001E0010F812FD2DF8991E7DF88810B
:10017000882311F0102FF5CFDF91CF911F910F91B0
:1001800008958BE0809381008DE790E09093890043
:100190008093880082E080936F0010928500109217
:1001A00084008091100190911101A0911201B091F1
:1001B00013018093880190938901A0938A01B093E1
:1001C0008B018FB780688FBF08951F920F920FB673
:1001D0000F9211248F939F93AF93BF9380918801C7
:1001E00090918901A0918A01B0918B010197A10999
:1001F000B1098093880190938901A0938A01B093FB
:100200008B01892B8A2B8B2B99F481E080938C01B5
:100210008091100190911101A0911201B0911301F0
:100220008093880190938901A0938A01B0938B01F8
:10023000BF91AF919F918F910F900FBE0F901F9024
:100240001895EAE7F0E08081806E80830895CF936F
:10025000DF93CDB7DEB7C05AD1090FB6F894DEBF31
:100260000FBECDBF80917800909179009093870167
:100270008093860189B180958093850180918D015D
:10028000813089F038F0823009F441C0833009F4BC
:100290004CC0A9C0109284011092820181E0809329
:1002A0008D0115B8A0C0809182018B3020F464E1EB
:1002B00071E081E04CDF809182018B508A3050F4F4
:1002C00061E271E081E043DF80918201843110F0CE
:1002D00010928201809182018F5F809382018091D0
:1002E000850180FD05C092E090938D0110928201FE
:1002F00083FD05C091E090938D011092820182FDF3
:1003000072C083E080938D01109282016CC06FE314
:1003100071E081E01CDF8091860185B980918501C3
:1003200083FD61C010928D015EC080918201853194
:10033000B0F48FE0E8E5F1E0DE01119601900D9256
:100340008A95E1F76091830170E06F5F7E4FCE0187
:1003500001967ED0BE016F5F7F4F81E0F8DE809115
:10036000820185518A3050F467E671E081E0EFDE6A
:10037000809182018E3110F0109282018091820171
:100380008F5F80938201E0918401F0E0E55FFE4F92
:10039000808185B98091850180FD0FC09091840195
:1003A000992341F091509093840190918301925050
:1003B0009093830193E090938D0183FF10928D01C0
:1003C00082FD11C08091840190910001891740F451
:1003D0008F5F80938401809183018E5F809383017E
:1003E00083E080938D01C056DF4F0FB6F894DEBFD7
:1003F0000FBECDBFDF91CF91089511B88FEF82B9B5
:100400008AB91BB887B918B884B983EF85B919DFE1
:1004100084E690E0A0E0B0E0809310019093110199
:10042000A0931201B09313018093880190938901E6
:10043000A0938A01B0938B01A4DE71DE10928D012E
:1004400006DF80918C018823E1F310928C01F8CFB4
:10045000FB01DC010D900020E9F7119701900D924E
:0A0460000020E1F70895F894FFCFA3
:10046A00054600430044004700450001020304FF1B
:10047A0001000000486F696B65205B486F6D655D20
:10048A0000284729204C6561726E202020202020F8
:10049A00202842292056697375616C697A6500487B
:1004AA006F696B65205B56697375616C5D202028E6
:1004BA00522920486F6D6500486F696B65205B4C57
:1004CA006561726E5D2000284729204261636B20B6
:1004DA0028522920486F6D6520284229204E6578C8
:0204EA0074009C
:00000001FF
